:06000000020F1402006B68
:03000B0002006B85
:0300130002006B7D
:03001B0002006B75
:0300230002006B6D
:03002B0002006B65
:0300330002006B5D
:03003B0002006B55
:0300430002006B4D
:03004B0002006B45
:0300530002006B3D
:03005B0002006B35
:0300630002006B2D
:01006B003262
:2000800002006B0002006B0002006B0002006B0002006B0002006B0002006B0002006B00F8
:1800A00002006B0002006B0002006B0002006B0002006B0002006B00BA
:2001000002006B0002006B0002006B0002006B0002006B0002006B0002006B0002006B0077
:2001200002006B0002006B0002006B0002006B0002006B0002006B0002006B0002006B0057
:2001400002006B0002006B0002006B0002006B0002006B0002006B0002006B0002006B0037
:2001600002006B0002006B0002006B0002006B0002006B0002006B0002006B0002006B0017
:030F1A00020F22A1
:030F3500020F1D8B
:050F1D0012018080FEBE
:200180001201A012023012029BC2AF120E3C1209DCD2AF1208CCD2873000FD120A7580F8FF
:2001A00090E6007410F00090E60174C0F00090E610E4F00090E611E4F00090E612E4F000A9
:2001C00090E613E4F00090E61474E0F00090E615E4F00090E6047480F00090E6047402F057
:2001E0000090E6047404F00090E6047406F00090E6047408F00090E604E4F00090E618E493
:20020000F00090E619E4F00090E61A7408F00090E61BE4F00090E6247402F00090E625E4AB
:20022000F00090E670E4F00090E682E054FDF0220090E6E27402F00090E6E37401F00090CD
:20024000E6F574FFF000900FDCE49390E6F3F0900FDDE49390E6C3F0900FDEE49390E6C1CE
:20026000F0900FDFE49390E6C2F0900FE1E49390E6C0F0900FE2E49390E6F4F07F00BF8044
:200280000050128F057EE4EF900F3893FC8D828E83F00F80E990E6C6E4F02275B2FF7580DC
:1802A00000D287D286D282D283D28475B3FF75900075B5FF75B00022FA
:200F3800010101010101010700000000000000000000000000000000000000000000003F4C
:200F5800010101010101010700000000000000000000000000000000000000000000003F2C
:200F7800380101010101010703020202020202000000000000000000360000000000003F90
:200F9800010101010101010700000000000000000000000000000000000000000000003FEC
:200FB80000000000000000000000000000000000000080360001000003020000000000005D
:0B0FD80000000000A0000000024E001E
:2002B80090E68BE4F090E6A0E0FF20E1F822D280758202120EF0C280758202120EF0C28455
:2002D800758202120EF07F04EF6078EF14FE7D08ED606DEE2440F582E434E7F583E0FC8DCA
:2002F800027B001ABAFF011B8AF005F0EC8002C313D5F0FB30E016D285758202C007C00604
:20031800C005120EF0D005D006D0078014C285758202C007C006C005120EF0D005D006D0BD
:2003380007D280758202C007C006C005120EF0C280758202120EF0D005D006D0071D8090F7
:200358001F8085D284758202120EF0D280758202120EF0C280758202020EF090E678E0FF9F
:200378004480F090E67974C0F090E678E0FF30E0F890E678E0FF20E11190E678E0FF444099
:20039800F090E678E0FF20E6F82290E740E0FF90E679F090E678E0FF30E0F890E678E0FF51
:2003B80020E11190E678E0FF4440F090E678E0FF20E6F82290E741E0FF90E679F090E67881
:2003D800E0FF30E0F890E678E0FF4440F090E678E0FF20E6F82290E678E0FF4480F090E6F9
:2003F8007974C0F090E678E0FF30E0F890E678E0FF20E11190E678E0FF4440F090E678E085
:20041800FF20E6F82290E679E4F090E678E0FF30E0F890E678E0FF20E11190E678E0FF441D
:2004380040F090E678E0FF20E6F82290E678E0FF4480F090E67974C1F090E678E0FF30E015
:20045800F890E678E0FF20E11190E678E0FF4440F090E678E0FF20E6F82290E679E0FF9021
:20047800E740F090E678E0FF30E0F87F00BF0C00501DEF2440FDE434E7FE90E679E0FC8D1C
:20049800828E83F090E678E0FE30E0F80F80DE90E678E04420F090E679E0FF90E74CF0904D
:2004B800E678E0FF30E0F890E678E04440F090E679E0FF90E74DF090E678E0FF20E6F8222E
:2004D800AE82AF837D008D037C00C3EB9EEC64808FF063F08095F0503FC280758202C00795
:2004F800C006C005120EF0D005ED2440F582E434E7F583E0F5B0ED042440F582E434E7F5F0
:2005180083E0F590D280758202C005120EF0D005D006D0070D0D80AE22C283758202120E71
:20053800F07F04EF6078EF14FE7D08ED606DEE2440F582E434E7F583E0FC8D027B001ABA2F
:20055800FF011B8AF005F0EC8002C313D5F0FB30E016D285758202C007C006C005120EF01D
:20057800D005D006D0078014C285758202C007C006C005120EF0D005D006D007D2807582E0
:2005980002C007C006C005120EF0C280758202120EF0D005D006D0071D80901F8085D2836C
:2005B800758202020EF0C282758202120EF07F02EF6078EF14FE7D08ED606DEE2440F5828C
:2005D800E434E7F583E0FC8D027B001ABAFF011B8AF005F0EC8002C313D5F0FB30E016D24C
:2005F80085758202C007C006C005120EF0D005D006D0078014C285758202C007C006C0055B
:20061800120EF0D005D006D007D280758202C007C006C005120EF0C280758202120EF0D068
:2006380005D006D0071D80901F8085D282758202020EF00090E6017402F00090E6F574FF97
:20065800F00090E6C67480F090E6C77436F090E6C8E4F090E6C97401F090E6CAE4F090E65B
:20067800CBF090E6CC7403F090E6CD7402F090E60CE4F00090E6047480F00090E6047406AD
:20069800F00090E604E4F00075BB0600220075BB000090E6F574FFF00090E6047480F00050
:2006B80090E6047406F00090E604E4F00090E60174C0F0002290E6B8E0FFBFC03E90E6B93A
:2006D800E0FFBF80028005BF832D801A90E6C1E0235401FF90E740F090E68AE4F090E68B4A
:2006F8007401F00208841203EE90E68AE4F090E68B740EF00208847582002290E6B8E0FFF1
:20071800BF4002800302088090E6B9E0FF24F9500302087CEF2F2F9007337302074E0207C5
:200738004802075402077B02083A0207A202085B12064B0208841206A502088490E6BEE0D4
:20075800FE7F0090E6BFE0FCE4FD4206EC4207BE0405BF000280030208841202B81202C656
:2007780002088490E6BEE0FE7F0090E6BFE0FCE4FD4206EC4207BE0205BF000280030208C0
:20079800841202B812037302088490E6BEE0FE7F0090E6BFE0FCE44206EC420790E6BAE0C8
:2007B800FD90E6BBE0FCED6034C281C282C285900001C007C006C004120F03C28675820281
:2007D800120EF0758202120EF0D286758202120EF0900001120F03D004D006D007C007C0CA
:2007F80006C0041202B8D004D006D0078E828F83C0041204D8D004EC607275B0007590003A
:200818007D00BD0E005017C280758202C005120EF0D280758202120EF0D0050D80E4D2820C
:20083800804A90E6BEE0FE7F0090E6BFE0FCE4FD4206EC4207BE0434BF00311202B812050D
:2008580031802990E6BEE0FE7F0090E6BFE0FCE4FD4206EC4207BE0213BF00101202B81226
:1008780005BE8008758200227582002275820122D9
:20E0000012010002FFFFFF40FEFF43003412010204010A060002FFFFFF40010009021900AC
:15E02000010100C0000904000001FFFFFF030705860200020085
:20E0360012010002FFFFFF40FEFF43003412010200010A060002FFFFFF4001000902120081
:19E05600010100C0000904000000FFFFFF030570E076E07EE096E0B2E0D1
:20E0700006030000090408034E0053004C001803530054004500520045004F0020007600FF
:20E0900031002E0030001C035200650063006500690076006500200043006F006E00660059
:0CE0B0002E000A03300030003000310068
:200888007800E84400600C7900901800E4F0A3D8FCD9FAD083D082F6D8FDC082C083758215
:0208A80000222C
:2008AA0090E6A0E04401F022AF8274805FC423541FFE740F5F90E6834EF090E683E04420AF
:2008CA00F02290E680E0440AF09000FA120F0390E65D74FFF090E65F74FFF0AF9174EF5FCA
:0A08EA00F59190E680E054F7F0224B
:060F2F00E478FFF6D8FD96
:060F1400750800750900DC
:2008F40090E680E0FF30E719750A00750BE0750C12750DE0750E1C750FE07510527511E0CB
:2009140022750A36750BE0750C48750DE0750E52750FE075101C7511E022C0E0C007C0D008
:2009340075D000AF9174EF5FF59175A100D200D0D0D007D0E032C021C0E0C0F0C082C083DF
:20095400C007C006C005C004C003C002C001C000C0D075D000AF9174EF5FF59175A10012E2
:2009740008F4D0D0D000D001D002D003D004D005D006D007D083D082D0F0D0E0D02132C033
:2009940021C0E0C0F0C082C083C007C006C005C004C003C002C001C000C0D075D000AF911C
:2009B40074EF5FF59175A1001208F4D0D0D000D001D002D003D004D005D006D007D083D058
:2009D40082D0F0D0E0D021321208F475122E751309758200120DA675124A75130975821075
:2009F400120DA6751293751309758214120DA690E65C7431F022AF828F06747F5EFF24F7E9
:200A1400500475820022BF010475820122530701E4BF000104F58222AF82BF010C90E6A1C7
:200A3400E0FE7D008E828D8322BF810C90E6A2E0FE7D008E828D83228F06747F5EFF700CA3
:200A540090E6A0E0FE7D008E828D832290E6A3E0FE7D00EFC3137C002EFEEC3D8E82F5833D
:200A740022C20090E6B8E0FF5307608F06BE00028028BF2002800DBF4002800EBF6002801C
:200A940003020D3B1208AA020D3B1206CDE5826003020D3B1208AA020D3B90E6B8E0FF5380
:200AB4000780BF80028003020C3A90E6B9E0FFBF0003020BAFBF06028035BF08028008BF77
:200AD4000A028017020C3490E740E508F090E68AE4F090E68B7401F0020D3B90E740E50960
:200AF400F090E68AE4F090E68B7401F0020D3B90E6BBE0FFBF01028017BF02028038BF03C8
:200B1400028059BF0602801BBF0702803C020BA9AE0AAF0B90E6B3EFF07F0090E6B4EEF049
:200B3400020D3BAE0CAF0D90E6B3EFF07F0090E6B4EEF0020D3BAE0EAF0F90E6B3EFF07F07
:200B54000090E6B4EEF0020D3BAE10AF1190E6B3EFF07F0090E6B4EEF0020D3B90E6BAE0C8
:200B7400FF90E064E0FEC3EF9E40061208AA020D3B90E6BAE075F002A42465F58274E03568
:200B9400F0F583E0FEA3E090E6B3F07F0090E6B4EEF0020D3B1208AA020D3B90E6B8E0FF73
:200BB40053071F8F06BE0002800ABE0102801DBF0268802E90E7407401F090E741E4F0905C
:200BD400E68AF090E68B7402F0020D3B90E740E4F090E741F090E68AF090E68B7402F00264
:200BF4000D3B90E6BCE0F582120A0AE582602590E6BCE0F582120A2CE0FF53070190E7403C
:200C1400EFF090E741E4F090E68AF090E68B7402F0020D3B1208AA020D3B1208AA020D3B98
:200C34001208AA020D3B90E6B9E0FF24F45003020D38EF2F2F900C4D73020D38020C83024F
:200C54000D00020CE1020D38020D38020D38020D38020D38020C71020D38020C7A90E6BAA3
:200C7400E0F508020D3B90E6BAE0F509020D3B90E6B8E0FF53071F8F06BE00028005BF02C0
:200C940047800A90E6BAE01208AA020D3B90E6BAE0703090E6BCE0F582120A0AE582602308
:200CB40090E6BCE0F582120A2CAE82AF83E0FD5305FE8E828F83EDF090E6BCE0F582120818
:200CD400B280641208AA805F1208AA805A90E6B8E0FF53071FBF004F90E6BAE0FFBF0102C4
:200CF4008005BF020280401208AA803B90E6BAE0FF702C90E6BCE0F582120A0AE582601A1E
:200D140090E6BCE0F582120A2CAE82AF83E0FD4305018E828F83EDF0800D1208AA8008127C
:0F0D340008AA80031208AA90E6A0E04480F022EB
:200D4300AF82BF03004005EF249C500122740F5FFEBE03028007740F5FFEBE0B45A2AF923B
:200D630001C2AFEF2400F582E43400F5837402F07E0074012FFCE43EFDEC2400F582ED3499
:200D830000F583E513FDF074022FFFE43EFEEF2400F582EE3400F583AE127F00EEF0A2014B
:200DA30092AF22E582FF5403600122A2AF9202C2AFEF2400F582E43401F5837402F07E0038
:200DC30074012FFCE43EFDEC2400F582ED3401F583E513F074022FFFE43EFEEF2400F582FA
:200DE300EE3401F583AE12EEF0A20292AF22E582FF5403600122A2AF9203C2AFEF2480F591
:200E030082E43400F5837402F07E0074012FFCE43EFDEC2480F582ED3400F583E513F0741E
:200E2300022FFFE43EFEEF2480F582EE3400F583AE12EEF0A20392AF22C2E8C2EA75120038
:200E4300751301758243120D43751280751300758253120D430090E650E4F00090E652E4E9
:200E6300F00090E654E4F00090E656E4F00090E65174FFF00090E65374FFF00090E65574AC
:200E8300FFF00090E65774FFF00090E658E4F090E65974FFF090E65AE4F090E65B74FFF084
:200EA30090E65CE4F090E65D74FFF090E65EE4F090E65F74FFF00090E660E4F00090E661F2
:200EC30074FFF090E662E4F090E66374FFF090E665E4F090E668740BF0AF9174EF5FF59140
:0C0EE300AF9174BF5FF591D2E8D2EA2213
:200EEF0022AF82120EEFDFFB2290FB50A3E582458370F922AE82AF83120EF81EBEFF011FD8
:050F0F00EE4F70F4221A
:0D0F2200758121120888E5826003020F1D11
:00000001FF
