:060000000212E202006B97
:03000B0002006B85
:0300130002006B7D
:03001B0002006B75
:0300230002006B6D
:03002B0002006B65
:0300330002006B5D
:03003B0002006B55
:0300430002006B4D
:03004B0002006B45
:0300530002006B3D
:03005B0002006B35
:0300630002006B2D
:01006B003262
:0900800002006B0002006B00029B
:08008900006B0002006B000295
:08009100006B0002006B00028D
:08009900006B0002006B000285
:0800A100006B0002006B00027D
:0800A900006B0002006B000275
:0700B100006B0002006B0070
:0901000002006B0002006B00021A
:08010900006B0002006B000214
:08011100006B0002006B00020C
:08011900006B0002006B000204
:08012100006B0002006B0002FC
:08012900006B0002006B0002F4
:08013100006B0002006B0002EC
:08013900006B0002006B0002E4
:08014100006B0002006B0002DC
:08014900006B0002006B0002D4
:08015100006B0002006B0002CC
:08015900006B0002006B0002C4
:08016100006B0002006B0002BC
:08016900006B0002006B0002B4
:08017100006B0002006B0002AC
:07017900006B0002006B00A7
:0312E8000212F0FF
:031303000212EBE8
:0512EB0012018080FEED
:070180001202101202B61278
:08018700030AC2AF12121512A7
:09018F000DBED2AF120CCDD287D7
:06019800300003120E54BA
:0C019E00E50860F6E5AB20E0F190E6F427
:0E01AA00E0FA20E0E90090E6C0744EF000900C
:0E01B800E6CEE4F00090E6CFE4F00090E6D052
:0E01C6007404F00090E6D1E4F00090E6C674F8
:0E01D40080F090E6C7742DF090E6C87401F03C
:0E01E20090E6C9E4F090E6CA7402F090E6CB15
:0E01F0007402F090E6CC7403F090E6CD740239
:0B01FE00F090E60CE4F00075BB04007C
:07020900E5BB30E7FB808834
:0E02100090E6007410F00090E60B7403F0000E
:0E021E0090E60174E0F00090E610E4F000902D
:0D022C00E611E4F00090E61274E0F000909E
:0D023900E613E4F00090E61474E0F000908D
:0D024600E615E4F00090E6047480F00090EE
:0E025300E6047482F00090E6047484F00090DB
:0E026100E6047486F00090E6047488F00090C5
:0D026F00E604E4F00090E6187408F000903A
:0D027C00E619E4F00090E61A7408F0009016
:0D028900E61BE4F00090E6207402F0009007
:0D029600E621E4F00090E6247402F00090F0
:0E02A300E625E4F00090E670E4F00090E682BC
:0502B100E054FDF02205
:0E02B6000090E6F574FFF0009013AAE4939018
:0D02C400E6F3F09013ABE49390E6C3F090E6
:0E02D10013ACE49390E6C1F09013ADE493906B
:0E02DF00E6C2F09013AFE49390E6C0F07A0010
:0302ED00BA8000D4
:0E02F00050128A037CE4EA90130693FD8B8281
:0602FE008C83F00A80E988
:0603040090E6C6E4F022C1
:0E030A0075B2FF758000D287D286D282D28370
:0E031800D28475B3FF75900075B5FF75B00007
:0103260022B4
:0E1306000101010101010107000000000000CB
:0E1314000000000000000000000000000000CB
:0E1322000000003F0101010101010107000070
:0E1330000000000000000000000000000000AF
:0E133E00000000000000003F38010101010125
:0E134C00010703020202020202000101010178
:0E135A00010101002D0000000000003F3801DD
:0E13680001010101010703020202020202005C
:0E13760002020202020202002D00000000002E
:02138400003F28
:0E138600000000000000000000000000000059
:0E13940000000000802D010002020302008014
:0813A2002D020002020302000B
:0713AA00A0000000E24E006C
:0503270090E68BE4F0FC
:09032C0090E6A0E0FA20E1F822BD
:0E033500D2807582021212BEC2807582021240
:0C03430012BEC2847582021212BE7A043F
:05034F00EA60027401E8
:06035400FB70030203D858
:05035A00EA14FB7C0821
:05035F00EC60027401D6
:0E036400FD606DEB2440F582E434E7F583E0A4
:0A037200FD8C067F001EBEFF011F78
:07037C008EF005F0ED800298
:02038300C313A2
:0E038500D5F0FB30E016D285758202C002C0B2
:0E03930003C0041212BED004D003D0028014A6
:0E03A100C285758202C002C003C0041212BEE3
:0603AF00D004D003D002CF
:0E03B500D280758202C002C003C0041212BEC4
:0E03C300C2807582021212BED004D003D00296
:0303D1001C808B02
:0403D4001A02034FB7
:0E03D800D2847582021212BED2807582021289
:0A03E60012BEC2807582020212BE30
:0E03F00090E678E0FA4480F090E67974C0F070
:0E03FE0090E678E0FA30E0F890E678E0FA2039
:0A040C00E11190E678E0FA4440F0B8
:0904160090E678E0FA20E6F822F5
:09041F0090E740E0FA90E679F064
:0E04280090E678E0FA30E0F890E678E0FA200E
:0A043600E11190E678E0FA4440F08E
:0904400090E678E0FA20E6F822CB
:0904490090E741E0FA90E679F039
:0E04520090E678E0FA30E0F890E678E0FA44C0
:0204600040F06A
:0904620090E678E0FA20E6F822A9
:0E046B0090E678E0FA4480F090E67974C0F0F4
:0E04790090E678E0FA30E0F890E678E0FA20BD
:0A048700E11190E678E0FA4440F03D
:0904910090E678E0FA20E6F8227A
:05049A0090E679E4F09A
:0E049F0090E678E0FA30E0F890E678E0FA2097
:0A04AD00E11190E678E0FA4440F017
:0904B70090E678E0FA20E6F82254
:0E04C00090E678E0FA4480F090E67974C1F09E
:0E04CE0090E678E0FA30E0F890E678E0FA2068
:0A04DC00E11190E678E0FA4440F0E8
:0904E60090E678E0FA20E6F82225
:0904EF0090E679E0FA90E740F094
:0A04F80090E678E0FA30E0F87A00B0
:03050200BA0C0030
:0E050500501DEA2440FBE434E7FC90E679E068
:06051300FD8B828C83F0D9
:0B05190090E678E0FB30E0F80A80DE9E
:0D05240090E678E04420F090E679E0FA904F
:03053100E74CF0A4
:0E05340090E678E0FA30E0F890E678E0444097
:0A054200F090E679E0FA90E74DF042
:09054C0090E678E0FA20E6F822BE
:04055500AA827B08F3
:05055900EB60027401DB
:0C055E00FC60558B047D001CBCFF011DDF
:07056A008CF005F0EA8002AD
:02057100C313B2
:0E057300D5F0FB30E012D285758205C002C0C3
:0A058100031212BED003D002801056
:0E058B00C285758205C002C0031212BED003E5
:02059900D0028E
:0E059B00D280758205C002C0031212BEC2805B
:0D05A9007582051212BED003D0021B80A384
:0105B6002222
:0605B700AA827B007C001B
:0305BD00BC080077
:0E05C0005039D280758205C002C003C00412FB
:0E05CE0012BED004D003D002EB2BFB3085050B
:0505DC00430301800350
:0305E1005303FEC3
:0E05E400C280758205C002C003C0041212BEA0
:0905F200D004D003D0020C80C239
:0D05FB00EA2440F582E434E7F583EBF022BA
:0E06080053B2DF7582051212BED280758205D4
:0E0616001212BE30851DA285E43390E741F03C
:0E062400D2857582051212BE43B22075820582
:070632001212BE75820122C5
:0C063900C2807582051212BE758200227C
:020645007A0039
:03064700BA0800EE
:0E064A00500FEA2440F582E434E7F583E4F033
:030658000A80EC29
:0E065B0043B2207582051212BED2857582054B
:0E0669001212BED2807582051212BED28475A6
:0E06770082021212BED2837582021212BED20D
:0D068500827582021212BED28575820512A6
:0E06920012BED2807582051212BEC28575821C
:0E06A000051212BEC2807582051212BE75824E
:0E06AE00E0120555120608E582600790E7404D
:0406BC007401F022B3
:0D06C00043B2207582051212BE7582001231
:0E06CD000555120608E582600790E7407402AA
:0206DB00F0220B
:0E06DD0043B2207582051212BED285758205C9
:0E06EB001212BED2807582051212BEC2857533
:0E06F90082051212BEC2807582051212BE75F5
:0D07070082E1120555120608E58260079098
:06071400E7407403F0222F
:0B071A0053B2DF7582051212BE7A0098
:03072500BA08000F
:0E07280050648A82C0021205B7D002BA0727B9
:0E07360043B220758205C0021212BED2857534
:0E07440082051212BED2807582051212BEC24C
:0B075200807582051212BED002802EBE
:0E075D0043B220758205C0021212BEC285751D
:0E076B0082051212BED2807582051212BEC225
:0E077900807582051212BE53B2DF7582051222
:0407870012BED002CC
:03078B000A80974A
:0E078E00C2857582051212BED28075820512D8
:0E079C0012BED2857582051212BEC280758211
:0407AA00050212BE74
:0E07AE0043B2207582051212BED285758205F7
:0E07BC001212BED2807582051212BED2847552
:0E07CA0082021212BED2837582021212BED2B9
:0D07D800827582021212BED2857582051252
:0E07E50012BED2807582051212BEC2857582C8
:0E07F300051212BEC2807582051212BE7582FA
:0E080100E0120555120608E582600790E740F8
:04080F007401F0225E
:0D08130043B2207582051212BE75820012DC
:0E0820000555120608E582600790E740740255
:02082E00F022B6
:0D08300043B2207582051212BE7A007B00D3
:03083D00BB0600F7
:0E0840005039EB2440F582E434E7F583E0F50F
:0E084E0082C002C003120555120608E582D0D2
:0D085C0003D002600874032A90E740F022E8
:0E08690043B220758205C0031212BED0030BED
:040877008B0280C2AE
:0E087B00C2857582051212BED28075820512EA
:0E08890012BED2857582051212BEC280758223
:04089700050212BE86
:06089B00AA82AB837C0081
:0E08A1008C057E00C3ED9AEE64808BF063F050
:0E08AF008095F0503FC280758202C002C003E7
:0E08BD00C0041212BED004EC2440F582E434D4
:0E08CB00E7F583E0F5B0EC042440F582E43458
:0E08D900E7F583E0F590D280758202C004122C
:0C08E70012BED004D003D0020C0C80AE76
:0108F30022E2
:0A08F400C2837582021212BE7A045C
:0508FE00EA6002740134
:06090300FB7003020987EE
:05090900EA14FB7C086C
:05090E00EC6002740121
:0E091300FD606DEB2440F582E434E7F583E0EF
:0A092100FD8C067F001EBEFF011FC3
:07092B008EF005F0ED8002E3
:02093200C313ED
:0E093400D5F0FB30E016D285758202C002C0FD
:0E09420003C0041212BED004D003D0028014F1
:0E095000C285758202C002C003C0041212BE2E
:06095E00D004D003D0021A
:0E096400D280758202C002C003C0041212BE0F
:0E097200C2807582021212BED004D003D002E1
:030980001C808B4D
:040983001A0208FE4E
:08098700D2837582020212BE48
:0A098F00C2827582021212BE7A02C3
:05099900EA6002740198
:06099E00FB7003020A22B7
:0509A400EA14FB7C08D1
:0509A900EC6002740186
:0E09AE00FD606DEB2440F582E434E7F583E054
:0A09BC00FD8C067F001EBEFF011F28
:0709C6008EF005F0ED800248
:0209CD00C31352
:0E09CF00D5F0FB30E016D285758202C002C062
:0E09DD0003C0041212BED004D003D002801456
:0E09EB00C285758202C002C003C0041212BE93
:0609F900D004D003D0027F
:0E09FF00D280758202C002C003C0041212BE74
:0E0A0D00C2807582021212BED004D003D00245
:030A1B001C808BB1
:040A1E001A02099916
:080A2200D2827582020212BEAD
:0E0A2A0090E60174E2F00090E6F574FFF00033
:0E0A380090E6047480F00090E6047482F000F2
:0D0A460090E6047486F00090E604E4F0757C
:030A530008012275
:0C0A56007508000075BB000090E6F57408
:0E0A6200FFF00090E6047480F00090E604744B
:0E0A700082F00090E6047486F00090E604E444
:0E0A7E00F00090E60174E0F00090E60B7403C7
:020A8C00F02256
:0E0A8E0090E6B8E0FABAC05490E6B9E0FABAC1
:040A9C008002800A4A
:050AA000BA8302801F73
:050AA500BA873E802B22
:0D0AAA0090E6C1E0235401FA90E740F0907F
:0D0AB700E68AE4F090E68B7401F0020C85F5
:0E0AC40012046B90E68AE4F090E68B740EF05C
:030AD200020C858E
:0E0AD50012064590E68AE4F090E68B7408F075
:030AE300020C857D
:040AE60075820022F3
:0A0AEA0090E6B8E0FABA400280037B
:030AF400020C8170
:0C0AF70090E6B9E0FA24F85003020C7DF0
:070B0300EA2A2A900B0A7395
:070B0A00020B28020B22027E
:060B11000B2E020B550241
:060B17000C3B020BA302DF
:050B1D000C5C020B7CE2
:060B2200120A2A020C85F4
:060B2800120A56020C85C2
:0E0B2E0090E6BEE0FA7B0090E6BFE0FDE4FC3E
:0D0B3C004202ED4203BA0405BB0002800333
:030B4900020C8516
:070B4C00120327120335021A
:020B53000C850F
:0E0B550090E6BEE0FA7B0090E6BFE0FDE4FC17
:0D0B63004202ED4203BA0205BB000280030E
:030B7000020C85EF
:070B73001203271203F00238
:020B7A000C85E8
:0E0B7C0090E6BEE0FA7B0090E6BFE0FDE4FCF0
:0D0B8A004202ED4203BA0605BB00028003E3
:030B9700020C85C8
:070B9A001203271207AE024F
:020BA1000C85C1
:0E0BA30090E6BEE0FA7B0090E6BFE0FDE44283
:0E0BB10002ED420390E6BAE0FC90E6BBE0FDE8
:0E0BBF00EC6034C281C282C285900001C00287
:0D0BCD00C003C0051212D1C286758202124B
:0E0BDA0012BE7582021212BED28675820212FF
:0E0BE80012BE9000011212D1D005D003D0022F
:0E0BF600C002C003C005120327D005D003D0F3
:0E0C0400028A828B83C00512089BD005ED602A
:090C12007275B0007590007C00C1
:030C1B00BC0E000C
:0E0C1E005017C280758202C0041212BED2802E
:0B0C2C007582021212BED0040C80E49E
:040C3700D282804A9B
:0E0C3B0090E6BEE0FA7B0090E6BFE0FDE4FC30
:0E0C49004202ED4203BA0434BB00311203270D
:050C57001208F48029E1
:0E0C5C0090E6BEE0FA7B0090E6BFE0FDE4FC0F
:0E0C6A004202ED4203BA0213BB001012032730
:050C780012098F800845
:040C7D00758200225A
:040C81007582002256
:040C85007582012251
:0EE0000012010002FFFFFF40FEFF430034123A
:04E00E000102040106
:0AE012000A060002FFFFFF400100B4
:0EE01C0009022000010100C0000904000002FA
:0EE02A00FFFFFF0307058202000200070586C4
:04E0380002000200E0
:0EE03C0012010002FFFFFF40FEFF43003412FE
:04E04A0001020001CE
:0AE04E000A060002FFFFFF40010078
:0EE0580009021200010100C0000904000000CE
:04E06600FFFFFF03B6
:01E06A0005B0
:02E06B0076E05D
:02E06D007CE055
:02E06F0084E04B
:02E071009CE031
:02E07300B8E013
:06E076000603000009048E
:08E07C0008034E0053004C00A4
:0EE084001803530054004500520045004F00A1
:0AE092002000760031002E0030005F
:0EE09C001C03520065006300650069007600F9
:0EE0AA006500200043006F006E0066002E002F
:0AE0B8000A03300030003000310090
:080C89007800E84400600C79DA
:0C0C910000901800E4F0A3D8FCD9FAD0C1
:0E0C9D0083D082F6D8FDC082C083758200220B
:080CAB0090E6A0E04401F022F4
:0E0CB300AA8274805AC423541FFB740F5A90F7
:0C0CC100E6834BF090E683E04420F02234
:0E0CCD0090E680E0440AF09000FA1212D190F6
:0E0CDB00E65D74FFF090E65F74FFF05391EF5A
:080CE90090E680E054F7F022D0
:0612FD00E478FFF6D8FDC5
:0612E200750900750A0009
:0A0CF10090E680E0FA30E719750B79
:030CFB0000750C75
:030CFE00E0750D91
:030D010012750E5A
:030D0400E0750F88
:030D07001C751048
:030D0A00E0751180
:030D0D0058751204
:020D1000E022DF
:040D1200750B3C75AC
:030D16000CE07579
:030D19000D4E7507
:030D1C000EE07571
:030D1F000F5875F5
:030D220010E07569
:030D2500111C7529
:030D280012E022B4
:090D2B005391EF75A100D20032D2
:0C0D3400C021C0E0C0F0C082C083C0023B
:0E0D4000C003C004C005C006C007C000C0014B
:0E0D4E00C0D075D0005391EF75A100120CF1CA
:0E0D5C00D0D0D001D000D007D006D005D004F2
:0D0D6A00D003D002D083D082D0F0D0E0D0F2
:020D7700213227
:0C0D7900C021C0E0C0F0C082C083C002F6
:0E0D8500C003C004C005C006C007C000C00106
:0E0D9300C0D075D0005391EF75A100120CF185
:0E0DA100D0D0D001D000D007D006D005D004AD
:0D0DAF00D003D002D083D082D0F0D0E0D0AD
:020DBC002132E2
:050DBE00120CF1751399
:030DC3002B751479
:080DC6000D75820012117F750A
:030DCE0013347566
:060DD100140D75821012E2
:040DD700117F751300
:030DDB0079751413
:0C0DDE000D75821412117F90E65C7431D8
:020DEA00F022F5
:0D0DEC00E582547FFA24F75004758200223E
:070DF900BA0104758201221A
:080E0000530201E4BA000104F1
:030E0800F582224E
:0E0E0B00AA82BA010C90E6A1E0FB7C008B826B
:030E19008C8322A5
:0E0E1C00BA810C90E6A2E0FB7C008B828C83F6
:010E2A0022A5
:0E0E2B0053027FEA700C90E6A0E0FB7C008B87
:040E3900828C832202
:0E0E3D0090E6A3E0FB7C00EAC313FA7D00EA16
:090E4B002BFBED3C8B82F58322A8
:0C0E5400C20090E6B8E0FA530260BA0059
:030E6000028028E5
:050E6300BA2002800D21
:050E6800BA4002800EFB
:050E6D00BA60028003E1
:030E720002111456
:060E7500120CAB02111487
:0A0E7B00120A8EE5826003021114D2
:060E8500120CAB02111477
:0D0E8B0090E6B8E0FA530280BA80028003BE
:030E980002101530
:0B0E9B0090E6B9E0FABA0003020F8CE9
:050EA600BA06028035D0
:050EAB00BA08028008F6
:050EB000BA0A028017E0
:030EB50002100F19
:0C0EB80090E740E509F090E68AE4F09035
:080EC400E68B7401F002111429
:0C0ECC0090E740E50AF090E68AE4F09020
:080ED800E68B7401F002111415
:0A0EE00090E6BBE0FABA01028017A9
:050EEA00BA020280388D
:050EEF00BA0302805966
:050EF400BA0602801B9C
:050EF900BA0702803C75
:030EFE00020F865A
:0A0F0100AA0BAB0C90E6B3EBF07BFB
:090F0B000090E6B4EAF0021114B2
:0A0F1400AA0DAB0E90E6B3EBF07BE4
:090F1E000090E6B4EAF00211149F
:0A0F2700AA0FAB1090E6B3EBF07BCD
:090F31000090E6B4EAF00211148C
:0A0F3A00AA11AB1290E6B3EBF07BB6
:090F44000090E6B4EAF002111479
:0E0F4D0090E6BAE0FA90E06AE0FBC3EA9B404F
:070F5B0006120CAB02111499
:0C0F620090E6BAE075F002A4246BF58262
:0B0F6E0074E035F0F583E0FAA3E0909A
:0D0F7900E6B3F07B0090E6B4EAF00211143C
:060F8600120CAB02111475
:0D0F8C0090E6B8E0FA53021FBA0002800A96
:050F9900BA0102801DF9
:050F9E00BA0268802E7C
:0E0FA30090E7407401F090E741E4F090E68A98
:0A0FB100F090E68B7402F0021114B8
:0E0FBB0090E740E4F090E741F090E68AF09075
:080FC900E68B7402F002111422
:0E0FD10090E6BCE0F582120DECE58260259002
:0E0FDF00E6BCE0F582120E0BE0FA5302019020
:0E0FED00E740EAF090E741E4F090E68AF090E9
:080FFB00E68B7402F0021114F0
:06100300120CAB021114F7
:06100900120CAB021114F1
:06100F00120CAB021114EB
:0C10150090E6B9E0FA24F4500302111137
:07102100EA2A2A901028734F
:0710280002111102105E022B
:06102F0010D90210BA0204
:061035001111021111026D
:06103B0011110211110267
:06104100111102104C0227
:0510470011110210551B
:09104C0090E6BAE0F50902111466
:0910550090E6BAE0F50A0211145C
:0D105E0090E6B8E0FA53021FBA00028005C8
:05106B00BA0247800AF3
:0A10700090E6BAE0120CAB02111476
:0D107A0090E6BAE0703090E6BCE0F582121E
:0D1087000DECE582602390E6BCE0F58212DE
:0E1094000E0BAA82AB83E0FC5304FE8A828B13
:0E10A20083ECF090E6BCE0F582120CB38064A3
:0510B000120CAB805F93
:0510B500120CAB805A93
:0E10BA0090E6B8E0FA53021FBA004F90E6BA73
:0710C800E0FABA0102800505
:0510CF00BA020280409E
:0510D400120CAB803B93
:0E10D90090E6BAE0FA702C90E6BCE0F58212C8
:0D10E7000DECE582601A90E6BCE0F5821287
:0E10F4000E0BAA82AB83E0FC4304018A828BC0
:0511020083ECF0800DFC
:05110700120CAB800892
:05110C00120CAB800392
:03111100120CAB12
:0811140090E6A0E04480F02207
:05111C00AA82BA0300E5
:071121004005EA249C500187
:0111280022A4
:09112900740F5AFBBB030280079E
:07113200740F5AFBBB0B45D3
:0A113900A2AF9201C2AFEA2400F554
:0C11430082E43400F5837402F07B007439
:0C114F00012AFCE43BFDEC2400F582EDDD
:0A115B003400F583E514FCF0740283
:0C1165002AFAE43BFBEA2400F582EB349C
:0A11710000F583AA137B00EAF0A248
:03117B000192AF2F
:01117E00224E
:08117F00E582FA54036001222D
:0A118700A2AF9202C2AFEA2400F505
:0C11910082E43401F5837402F07B0074EA
:0C119D00012AFCE43BFDEC2400F582ED8F
:0A11A9003401F583E514F074022A06
:0B11B300FAE43BFBEA2400F582EB3479
:0811BE0001F583AA13EAF0A277
:0411C6000292AF22C0
:0811CA00E582FA5403600122E2
:0A11D200A2AF9203C2AFEA2480F539
:0C11DC0082E43400F5837402F07B0074A0
:0C11E800012AFCE43BFDEC2480F582EDC4
:0A11F4003400F583E514F074022ABC
:0B11FE00FAE43BFBEA2480F582EB34AE
:0812090000F583AA13EAF0A22C
:041211000392AF2273
:08121500C2E8C2EA751300757E
:06121D001401758243126A
:04122300111C751312
:03122700807514BB
:0C122A000075825312111C0090E650E485
:0E123600F00090E652E4F00090E654E4F00080
:0E12440090E656E4F00090E65174FFF0009042
:0E125200E65374FFF00090E65574FFF0009034
:0E126000E65774FFF00090E658E4F090E6596F
:0E126E0074FFF090E65AE4F090E65B74FFF037
:0E127C0090E65CE4F090E65D74FFF090E65EB4
:0E128A00E4F090E65F74FFF00090E660E4F0A0
:0D1298000090E66174FFF090E662E4F090D3
:0E12A500E66374FFF090E665E4F090E668748E
:0A12B3000BF05391AFD2E8D2EA220B
:0112BD00220E
:0212BE00AA8202
:0612C0001212BDDAFB2250
:0312C60090FB504A
:0812C900A3E582458370F922C0
:0412D100AA82AB83BF
:0812D5001212C61ABAFF011B38
:0512DD00EA4B70F42251
:0312F000758121E4
:0A12F300120C89E58260030212EB81
:00000001FF
